:100000000C9434000C943E000C943E000C943E0082
:100010000C943E000C943E000C943E000C943E0068
:100020000C943E000C943E000C943E000C943E0058
:100030000C943E000C943E000C943E000C943E0048
:100040000C943E000C943E000C943E000C943E0038
:100050000C943E000C943E000C943E000C943E0028
:100060000C943E000C943E0011241FBECFEFD8E04C
:10007000DEBFCDBF0E945C000C947F000C9400009A
:10008000FC01808121E030E002C0220F331F6A951D
:10009000E2F7822B80838FE493EC0197F1F700C0A5
:1000A000000080812095282320838FE493EC019722
:1000B000F1F700C00000089581E08AB980E287B9B5
:1000C000459A0E9470000E947A008130E1F760E05A
:1000D0008BE290E00E94400082E00E947500F3CF26
:1000E00080E184B980E48CBD08958EBD0DB407FE17
:1000F000FDCF08950DB407FEFDCF8EB50895F89499
:02010000FFCF2F
:00000001FF
