:100000000C9434000C943E000C943E000C943E0082
:100010000C943E000C943E000C943E000C943E0068
:100020000C943E000C943E000C943E000C943E0058
:100030000C943E000C943E000C943E000C943E0048
:100040000C943E000C943E000C943E000C943E0038
:100050000C943E000C943E000C943E000C943E0028
:100060000C943E000C943E0011241FBECFEFD8E04C
:10007000DEBFCDBF0E9440000C9464000C940000D1
:1000800081E08AB980E287B988B90E945500C1E051
:10009000199B09C00E945F008130D1F7CBB982E083
:1000A0000E945A00F5CF1BB8F3CF80E184B980E4F9
:1000B0008CBD08958EBD0DB407FEFDCF08950DB41F
:0C00C00007FEFDCF8EB50895F894FFCF29
:00000001FF
