S01100004D6963726F44656D6F2E7372656394
S11300000C9434000C9451000C9451000C94510045
S11300100C9451000C9451000C9451000C94510018
S11300200C9451000C9451000C9451000C94510008
S11300300C9451000C9451000C9451000C945100F8
S11300400C9451000C9451000C9451000C945100E8
S11300500C9451000C9451000C9451000C945100D8
S11300600C9451000C94510011241FBECFEFD8E022
S1130070DEBFCDBF11E0A0E0B1E0E2E7F1E002C0F5
S113008005900D92A630B107D9F721E0A6E0B1E0C2
S113009001C01D92A730B207E1F70E9453000C94EF
S11300A0B7000C94000014B880E287B990EE9AB9B6
S11300B088B90E9469000E94A700E0910601F0E05F
S11300C0EE0FFF1FE050FF4F0190F081E02D0995E6
S11300D0F2CF84B1886284B980E58CBD08958EBD69
S11300E00DB407FEFDCF089580E48BB983E294EF4D
S11300F00197F1F700C000001BB883E294EF019769
S1130100F1F700C00000089580E88BB983E294EF12
S11301100197F1F700C000001BB883E294EF019748
S1130120F1F700C00000089581E00E946F0080E2B2
S11301308BB983E294EF0197F1F700C000001BB87C
S113014083E294EF0197F1F700C00000089583B1B2
S113015081FF03C010920601089582FF04C081E06C
S113016080930601089582E0809306010895F8942F
S1050170FFCFBB
S1090172940074008400F7
S9030000FC
