:100000000C9434000C9451000C9451000C94510049
:100010000C9451000C9451000C9451000C9451001C
:100020000C9451000C9451000C9451000C9451000C
:100030000C9451000C9451000C9451000C945100FC
:100040000C9451000C9451000C9451000C945100EC
:100050000C9451000C9451000C9451000C945100DC
:100060000C9451000C94510011241FBECFEFD8E026
:10007000DEBFCDBF11E0A0E0B1E0E2E7F1E002C0F9
:1000800005900D92A630B107D9F721E0A6E0B1E0C6
:1000900001C01D92A730B207E1F70E9462000C94E4
:1000A000B7000C940000459A83E294EF0197F1F7B2
:1000B00000C00000459883E294EF0197F1F700C07B
:1000C0000000089580EE8AB980E287B90E9453004B
:1000D0000E94A600E0910601F0E0EE0FFF1FE05045
:1000E000FF4F0190F081E02D0995F0CF80E28BB9B0
:1000F00083E294EF0197F1F700C000001BB883E2A0
:1001000094EF0197F1F700C00000089580E48BB9E7
:1001100083E294EF0197F1F700C000001BB883E27F
:1001200094EF0197F1F700C00000089580E88BB9C3
:1001300083E294EF0197F1F700C000001BB883E25F
:1001400094EF0197F1F700C00000089583B1823069
:1001500019F410920601089583B1843021F481E0EE
:1001600080930601089582E0809306010895F89433
:02017000FFCFBF
:06017200760086009600F5
:00000001FF
