:100000000C9434000C9451000C9451000C94510049
:100010000C9451000C9451000C9451000C9451001C
:100020000C9451000C9451000C9451000C9451000C
:100030000C9451000C9451000C9451000C945100FC
:100040000C9451000C9451000C9451000C945100EC
:100050000C9451000C9451000C9451000C945100DC
:100060000C9451000C94510011241FBECFEFD8E026
:10007000DEBFCDBF11E0A0E0B1E0E6E8F1E002C0F4
:1000800005900D92A630B107D9F721E0A6E0B1E0C6
:1000900001C01D92A730B207E1F70E946F000C94D7
:1000A000C1000C940000FC01808121E030E002C01E
:1000B000220F331F6A95E2F7822B80838FE493EC43
:1000C0000197F1F700C0000080812095282320834C
:1000D0008FE493EC0197F1F700C00000089514B885
:1000E00080E287B981EE8AB9459A0E9485000E9414
:1000F000B100E0910601F0E0EE0FFF1FE050FF4F6E
:100100000190F081E02D0995F2CF84B1886284B925
:1001100080E58CBD08958EBD0DB407FEFDCF08951A
:100120000DB407FEFDCF8EB5089581E00E948B00CF
:100130000E949000823011F4589A01C0589865E0EE
:100140008BE290E00E945300089566E08BE290E01D
:100150000E945300089567E08BE290E00E945300F4
:10016000089586B181FF03C010920601089582FFB1
:1001700004C081E080930601089582E08093060127
:060180000895F894FFCF82
:060186009500A500AB008E
:00000001FF
