:100000000C9434000C9451000C9451000C94510049
:100010000C9451000C9451000C9451000C9451001C
:100020000C9451000C9451000C9451000C9451000C
:100030000C9451000C9451000C9451000C945100FC
:100040000C9451000C9451000C9451000C945100EC
:100050000C9451000C9451000C9451000C945100DC
:100060000C9451000C94510011241FBECFEFD8E026
:10007000DEBFCDBF11E0A0E0B1E0EAE7F1E002C0F1
:1000800005900D92A630B107D9F721E0A6E0B1E0C6
:1000900001C01D92A730B207E1F70E9453000C94F3
:1000A000BB000C94000014B880E287B980EE8AB9D6
:1000B0008AE090E0459AE3EDF0E33197F1F700C074
:1000C000000028B128B9E3EDF0E33197F1F700C063
:1000D0000000019779F780E288B90E94AB00E091B7
:1000E0000601F0E0EE0FFF1FE050FF4F0190F0819E
:1000F000E02D0995F2CF80E28BB983E294EF01976E
:10010000F1F700C000001BB883E294EF0197F1F70C
:1001100000C00000089580E48BB983E294EF01975A
:10012000F1F700C000001BB883E294EF0197F1F7EC
:1001300000C00000089580E88BB983E294EF019736
:10014000F1F700C000001BB883E294EF0197F1F7CC
:1001500000C00000089583B181FF03C01092060122
:10016000089582FF04C081E080930601089582E033
:0A017000809306010895F894FFCF74
:06017A007B008B009B00DE
:00000001FF
