S01100004D6963726F44656D6F2E7372656394
S11300000C9434000C9451000C9451000C94510045
S11300100C9451000C9451000C9451000C94510018
S11300200C9451000C9451000C9451000C94510008
S11300300C9451000C9451000C9451000C945100F8
S11300400C9451000C9451000C9451000C945100E8
S11300500C9451000C9451000C9451000C945100D8
S11300600C9451000C94510011241FBECFEFD8E022
S1130070DEBFCDBF11E0A0E0B1E0E6EAF1E002C0EE
S113008005900D92A830B107D9F721E0A8E0B1E0BE
S113009001C01D92A930B207E1F70E946F000C94D1
S11300A0D1000C940000FC01808121E030E002C00A
S11300B0220F331F6A95E2F7822B80838FE493EC3F
S11300C00197F1F700C00000808120952823208348
S11300D08FE493EC0197F1F700C00000089582E0EB
S11300E084B980E287B981EE8AB9459A0E94860074
S11300F00E94BA00E0910801F0E0EE0FFF1FE0500B
S1130100FF4F0190F081E02D0995F2CF84B1886210
S113011084B980E58CBD08958EBD0DB407FEFDCF76
S113012008950DB407FEFDCF8EB5089581E00E94B9
S11301308C000E949100823029F460E08BE290E010
S11301400E94530066E08BE290E00E945300089501
S113015065E08BE290E00E945300089567E08BE233
S113016090E00E945300089560E085E290E00E94D0
S11301705300089586B18770823041F0843049F08D
S1130180813059F482E080930801089510920801A7
S1130190089581E080930801089583E08093080125
S10901A00895F894FFCF5E
S10B01A69600A800AE00B400AD
S9030000FC
