:100000000C9434000C9451000C9451000C94510049
:100010000C9451000C9451000C9451000C9451001C
:100020000C9451000C9451000C9451000C9451000C
:100030000C9451000C9451000C9451000C945100FC
:100040000C9451000C9451000C9451000C945100EC
:100050000C9451000C9451000C9451000C945100DC
:100060000C9451000C94510011241FBECFEFD8E026
:10007000DEBFCDBF11E0A0E0B1E0E6E8F1E002C0F4
:1000800005900D92A630B107D9F721E0A6E0B1E0C6
:1000900001C01D92A730B207E1F70E9453000C94F3
:1000A000C1000C94000014B880E287B991EE9AB9AF
:1000B00088B90E9469000E94B100E0910601F0E059
:1000C000EE0FFF1FE050FF4F0190F081E02D0995EA
:1000D000F2CF84B1886284B980E58CBD08958EBD6D
:1000E0000DB407FEFDCF08950DB407FEFDCF8EB50C
:1000F00008955E9A8FE493EC0197F1F700C0000039
:100100005E988FE493EC0197F1F700C0000008952A
:100110005F9A8FE493EC0197F1F700C000005F98BD
:100120008FE493EC0197F1F700C00000089581E09F
:100130000E946F000E947400823011F4589A02C02D
:100140008BB18BB95D9A8FE493EC0197F1F700C006
:1001500000005D988FE493EC0197F1F700C0000078
:10016000089586B181FF03C010920601089582FFB1
:1001700004C081E080930601089582E08093060127
:060180000895F894FFCF82
:06018600970079008800DB
:00000001FF
